:020000040800F2
:100000005007002061020008191100080D110008B6
:10001000151100080D040008051400080000000078
:100020000000000000000000000000002111000896
:1000300011040008000000001D110008251100082F
:100040007B0200087B0200087B0200087B0200089C
:100050007B0200087B0200083D0600087B020008C6
:100060007B0200087B0200087B0200087B0200087C
:100070007B0200087B0200087B0200087B0200086C
:100080007B0200087B0200087B02000800000000E1
:100090000000000000000000000000007B020008DB
:1000A0007B0200087B0200087B0200087B0200083C
:1000B0007B0200087B0200087B0200087B0200082C
:1000C0007B0200087B0200087B0200087B0200081C
:1000D0007B0200087B0200087B0200080000000091
:1000E0007B0200087B0200087B0200080000000081
:1000F0000000000000000000000000007B0200087B
:10010000000000007B0200087B0200087B02000860
:1001100000000000000000000000000000000000DF
:100120007B0200087B0200087B0200087B020008BB
:100130007B0200080000000000000000000000003A
:100140000000000000000000000000007B0200082A
:100150007B0200087B0200087B0200087B0200088B
:100160007B0200087B020008000000000000000085
:10017000000000000000000000000000000000007F
:10018000000000007B0200080000000000000000EA
:100190007B02000800F002F800F052F814A696E87E
:1001A000000CB244B344DA4501D100F049F8BAE892
:1001B0000F000FA696E83000A5EB040504EB060738
:1001C000AAEB0704A7F101074FEA15154FEA34140B
:1001D000A4F10104AC4201D300F032F813F0010F96
:1001E00018BFFB1A43F0010300F001F8DBE71847E2
:1001F000DC130000FC130000103A24BF78C878C15B
:10020000FAD8520724BF30C830C144BF04680C601C
:1002100070470000704700000023002400250026DE
:10022000103A28BF78C1FBD8520728BF30C148BF59
:100230000B6070471FB501F0AFF91FBD10B510BDC1
:1002400000F0A9F81146FFF7F5FF01F0DDF800F026
:10025000C7F803B4FFF7F2FF03BC00F0CFF80000CB
:100260000948804709480047FEE7FEE7FEE7FEE74A
:10027000FEE7FEE7FEE7FEE7FEE7FEE70448054986
:10028000054A064B70470000291100089501000837
:100290005001002050070020500300205003002090
:1002A00053EA020C00F069802DE9F04B4FF0000694
:1002B000002B1FBFB3FA83F503FA05F424FA05F601
:1002C0005E4012BF1643B2FA82F502FA05F4C5F198
:1002D00020051EBF22FA05FC44EA0C04203556EA2C
:1002E000044C4FEA144418BF641C4FF000084FF050
:1002F0000009904271EB030C39D3002919BFB1FA00
:1003000081F701FA07F6B0FA80F700FA07F6C7F1AD
:1003100020071EBF20FA07FC46EA0C062037B6FB72
:10032000F4FCA7EB0507103F07F01F0BCBF12006ED
:100330002CFA06F60CFA0BFB44BFB3460026202F1E
:10034000A4BF5E464FF0000B5BEA060C08BF4FF0FF
:10035000010B19EB0B0948EB0608ABFB027C06FB13
:1003600002CC0BFB03CCC01B71EB0C01C1E70B46AD
:10037000024641464846BDE8F08B13B5084318BF16
:100380004FF0FF300146AFF30080BDE81C407047DE
:10039000704770477047754600F02CF8AE46050070
:1003A0006946534620F00700854618B020B5FFF790
:1003B00065FFBDE820404FF000064FF000074FF00A
:1003C00000084FF0000BAC46ACE8C009ACE8C0092F
:1003D000ACE8C009ACE8C00921F007018D467047C0
:1003E00010B50446AFF300802046BDE81040FFF78B
:1003F00030BF00000048704710000020014918205D
:10040000ABBEFEE72600020070470000FEE70000DA
:100410007047000010B540F27401C2F2000108609C
:1004200047F2B011C0F20B0100240C22C0E9011404
:10043000C0E90344C0E9052400F098FD002818BF76
:1004400000F0FEF840F27100C2F20000047010BD2E
:10045000B0B50829C0F0BD800278F02A40F0B9801C
:10046000014411F8011C552918BFB0BD427800792C
:1004700040F27001C2F20001087040F20511C2F2B0
:100480000001F0230A2A0B7022DC012A75D0092A08
:1004900057D10922A1F8012040F27102C2F20002F4
:1004A00012780223002A40F20902C0F2010218BFAA
:1004B000012308710020C1F805200122CB70C1F88A
:1004C000090000BF8B5C01320D2A1844FAD19EE06E
:1004D0000B2A00F07F80292A33D12922A1F801209C
:1004E00040F27102C2F2000212780223002A18BF01
:1004F000012308713420C0F23200C1F805004FF426
:100500008C70A1F8090000200122CB70C1F80B000B
:10051000C1F80F00A1F813008B5C0132152A1844B2
:10052000FAD1020A487540F27400C2F20000006875
:1005300055258A7518226423CD75BDE8B04000F0BA
:100540006BBD40F27103C2F200031B784A700022B7
:1005500002258A70002B18BF012508710120CD707B
:10056000C1F80920C1F805200B5C01300D281A44A0
:10057000FAD1100A4A7388734CE040F27105C2F256
:1005800000052B7801220224002B40F20103A1F880
:10059000012018BF012408710020C0F20203CC70B2
:1005A000C1F80900C1F805308B5C01320D2A1844EE
:1005B000FAD1020A487340F27400C2F200008A7352
:1005C00055220068CA731022642300F025FD012023
:1005D0002870B0BD0B22A1F8012040F27102C2F2D6
:1005E000000212780223002A18BF01230871092093
:1005F000C0F20100821C0020C1F805200122CB704E
:10060000C1F809008B5C01320D2A1844FAD1020AA4
:1006100048738A7340F27400C2F2000000685525E6
:1006200010226423CD73BDE8B04000F0F5BC00009B
:1006300040F27801C2F20001086070477047000084
:1006400040F27800C2F20000006808B1004700BF25
:10065000FEE7000090F834C0BCF1010F04BF022097
:10066000704770B54FF0010C80F834C0D0F858E0F6
:1006700090F835C0BCF1010F37D14FF0020C80F873
:1006800035C04FF0000CC0F854C0D0F800C08468EA
:10069000056CC06DDCF80060402C26F48026CCF898
:1006A0000060CCF804300B4604BF13460A463F21D5
:1006B00001FA00F0CCF80830CCF80C20CEF8080095
:1006C000DCF8000040F01600CCF800002DB1DCF89A
:1006D000000040F00800CCF80000DCF8000040F01A
:1006E0000100CCF80000002070BD002180F834101B
:1006F000022070BD2DE9F04F83B000F1200200F11F
:100700003E4741F20005009207F1FF77C4F202056F
:1007100007224FEAB726A84208BF0422042E38BF9A
:100720004FEAB72200274FF0000A4FF0000801926D
:100730000AE000BF08F101080AF1020AB8F1100F3F
:1007400007F1040700F09D800D68012202FA08FC01
:1007500015EA0C09EED04D68032205F0030BABF14E
:100760000106012E02FA0AFE10D88668CC6826EA35
:100770000E0604FA0AF4344384604468C5F3001595
:1007800024EA0C0605FA08F52E434660BBF1030F78
:100790001BD0C6688D6826EA0E0605FA0AF52E43B8
:1007A000BBF1020FC66010D16FF00302009D02EA98
:1007B000580655F806C007F01C040F220B69A2402A
:1007C0002CEA0202A3401A43AA5102684B6822EAAB
:1007D0000E0203F0030606FA0AF6324313F4403F12
:1007E0000260A7D0002243F644030292C4F202033F
:1007F0001A6843F6004442F480421A601A68C4F250
:10080000010402F480420292029A28F003024FF699
:10081000084C2244CFF6FF7C52F80C3007F00C064F
:100820000F25B540AB43019D05FA06F6334342F868
:100830000C30A2684B6842EA090643F60C4CDD0214
:1008400058BF22EA0906A660C4F2010CDCF80020B9
:100850009D0242EA090658BF22EA0906CCF8006068
:1008600062689D0342EA090658BF22EA09066660EB
:100870002268DB0342EA090658BF22EA090626601D
:1008800058E703B0BDE8F08F002A08BF0904816172
:100890007047000040F24810C2F200000068704744
:1008A00040F2040040F24811C2F20000C2F200011E
:1008B00000780A68104408607047000080B543F66D
:1008C0000040C4F20200016841F400710160016857
:1008D00041F480610160016841F48071016003208E
:1008E00000F05EF80F2000F005F800F02BF8002073
:1008F00080BD0000B0B540F20402C2F2000240F236
:1009000000011278C2F200014FF47A730968B3FB58
:10091000F2F20446B1FBF2F1084600F00DFB0F2C99
:100920004FF001050CD858B94FF0FF302146002296
:10093000002500F009F840F20800C2F2000004604F
:100940002846B0BD7047000010B54EF60C5CCEF2E4
:10095000000CDCF80030C3F3022E8EF00704042CE8
:1009600028BF0424BEF103034FF0FF3E0EFA04F447
:1009700038BF0023A14399400EFA03F39A43114371
:1009800000F1604200F00F03090102F56442043BEC
:100990006344002848BF03F10C02117010BD000031
:1009A0004EF60C51CEF200010A684FF6FF031A40D2
:1009B00060F30A2242F0806040F0FD7008607047EA
:1009C000002804BF012070472DE9F04143F60808D4
:1009D000C4F202080446D8F8F8030D4600F00700F8
:1009E000814207D988F8F853D8F8F80300F00700D7
:1009F000A84276D12068810717D5410705D5D8F8D8
:100A0000001041F4E051C8F80010010705D5D8F8EE
:100A1000001041F46041C8F80010D8F80010A26836
:100A200021F0F0011143C8F80010C0073FD1D8F8F9
:100A3000F80300F00700854207D288F8F853D8F889
:100A4000F80300F00700A8424BD12068410707D502
:100A5000D8F80010E26821F4E0511143C8F8001002
:100A6000000708D5D8F80000216920F4604040EA6A
:100A7000C100C8F8000000F07BF8D8F8001041F27F
:100A8000B252C1F30311C0F60002515C40F2000201
:100A900020FA01F140F20800C2F200000068C2F240
:100AA00000021160FFF726FF0020BDE8F0816068BA
:100AB000811E022907D258F8081C89015CBF012059
:100AC000BDE8F08110E0012807D158F8081C89031F
:100AD0005CBF0120BDE8F08106E058F8081C8907DA
:100AE00002D40120BDE8F081D8F8001021F0030104
:100AF0000843C8F80000FFF7CDFE064641F28837EC
:100B0000D8F80000616800F00C00B0EB810F8ED0C7
:100B1000FFF7C0FE801BB842F2D90320BDE8F08188
:100B200040F2000043F60801C2F20000C4F20201E4
:100B30000068096841F2C252C1F38221C0F6000286
:100B4000515CC8407047000040F2000043F60801C5
:100B5000C2F20000C4F202010068096841F2C25208
:100B6000C1F34231C0F60002515CC840704700003A
:100B700010B543F60404C4F202046168C1F38101B4
:100B800042F20040C0F2F400DFE801F00203080284
:100B900010BD41F20020C0F27A0010BD216801F0C2
:100BA0003F02216823684902C3F3881105D4A1FBE1
:100BB00000010023FFF774FB06E041F20020C0F2C1
:100BC0007A004843B0FBF2F021680222C1F30141F0
:100BD00002EB4101B0FBF1F010BD0000002804BFA2
:100BE000012070472DE9F04182B00446007843F6B9
:100BF0000006C007C4F2020649D0B06800F00C003D
:100C0000042809D13068800341D5606800283ED1AE
:100C1000012002B0BDE8F081B06800F00C000828A7
:100C200002D170684002EDD465683068B5F5A02F38
:100C300005D0B5F5803F09D140F480300CE040F498
:100C400080203060306840F4803005E020F480304F
:100C50003060306820F480203060FFF71BFE002DEC
:100C6000054611D03068800311D4FFF713FE401BF6
:100C70006428F7D928E100BFFFF70CFE401B642869
:100C80004FF0030000F2E08030688003F4D4207855
:100C900080071BD5B06810F00C0F09D0B06800F0C9
:100CA0000C00082840F085807068400200F18180C7
:100CB0003068800703D5E068012840F09A803068EA
:100CC000216920F0F80040EAC10030602078000778
:100CD00034D42078400746D4A5695DB3B06800F0ED
:100CE0000C00082840F09C80012D00F08280706884
:100CF000E16900F480028A427BD1216A00F03F0260
:100D00008A4276D147F6C071626A0140B1EB821F18
:100D10006FD1A16A4FF6FF73C903994300F44032C3
:100D2000A1F580318A4264D1E16A00F07060B0EBD5
:100D3000016F5ED1002002B0BDE8F081606900283B
:100D40005BD00020C4F247200121C0F8801EFFF7CD
:100D5000A1FD0546706F8007BBD4FFF79BFD401BCC
:100D60000228F7D9B0E0306C5FEAC0080AD400204E
:100D70000190306C40F080503064306C00F0805056
:100D80000190019847F20007C4F200073868C005D7
:100D900026D4386840F480703860FFF77BFD054644
:100DA0003868C0051CD4FFF775FD401B0228F7D931
:100DB0008AE0E068002840F20000C4F2472053D0E7
:100DC00001210160FFF766FD054600BF306880071E
:100DD0003FF575AFFFF75EFD401B0228F6D973E0C3
:100DE000A568306F052D51D0012D56D140F001007E
:100DF00059E0012002B0BDE8F0810020C4F2472094
:100E00000021C0F8801EFFF745FD0546706F800782
:100E10007FF55FAFFFF73EFD401B0228F6D953E098
:100E20000027C4F2472700203866FFF733FD022D64
:100E300005460DD1306880015DD5FFF72BFD401BC5
:100E400002284FF00300F5D902B0BDE8F08100BFE1
:100E5000306880017FF56EAFFFF71CFD401B022854
:100E60004FF00300F4D9EFE700210160FFF712FD16
:100E7000054600BF306880077FF528AFFFF70AFD01
:100E8000401B02284FF00300F4D9DDE740F00400D6
:100E90003067306F40F0010005E020F0010030675E
:100EA000306F20F004003067FFF7F4FC002D05469A
:100EB00041F2883713D000BF306F800712D4FFF79C
:100EC000E9FC401BB842F7D9032002B0BDE8F0812D
:100ED000FFF7E0FC401BB8424FF00300B4D8306F7E
:100EE0008007F5D4B8F1000F3FF5F6AE306C20F076
:100EF00080503064F0E604F11C052FCD084340EA31
:100F00008210D9034FF6FF729143A1F5803140EA78
:100F100005600843706001203866FFF7BBFC04469B
:100F2000306880013FF506AFFFF7B4FC001B0228D4
:100F30004FF00300F4D987E7411E0020B0EB116F9A
:100F40001CBF012070474EF21002CEF20002516029
:100F50004EF62351CEF20001F0230B700721906072
:100F6000116070477047000070470000002804BF00
:100F70000120704710B5044690F8410028B90020C0
:100F800084F84000204600F021F8242084F8410035
:100F90002068C16821F40051C160204600F06CF95E
:100FA0002068016921F490410161416921F02A0121
:100FB0004161C16841F40051C1600020202160649A
:100FC00084F8411084F84210606310BD704700003F
:100FD00090F84230202B1CBF0220704700294FF0B0
:100FE000010318BF002A01D118467047002303638C
:100FF00000F0B2B9006841F20001C4F20101884278
:1010000018BF704740F20410C2F2000001210170C5
:1010100070470000704700002DE9F04381B004469E
:1010200090F84100202809D1884600294FF001009E
:1010300018BF002A06D101B0BDE8F083022001B03C
:10104000BDE8F0830020606421201D4684F8410043
:101050001646FFF71FFCA684E684A1680646B1F594
:10106000805F02D1206900284DD0C1464FF00008B2
:10107000E08C40B36F1C0BE0B9F1000F1AD019F8E7
:10108000010B21684860E08C0138E084E08CD0B12D
:10109000206800680006EFD4002FF9D0FFF7FAFBB4
:1010A00001464FF0030045B3891BA94225D82068AB
:1010B000C068EDE738F8020B21686FF35F204860E5
:1010C0004FF00009DFE720680068400614D46F1C69
:1010D00004E000BF2068006840060DD4002FF9D05E
:1010E000FFF7D8FB01464FF0030035B1891BA94239
:1010F00003D82068C068EDE70020202184F8411063
:1011000001B0BDE8F0834FF00009B1E7FEE7000051
:10111000FEE70000FEE70000704700007047000097
:1011200070470000FFF7BCBB4EF68850CEF20000BF
:10113000016841F47001016070470000806B016834
:10114000496990F84120212A11D111F080010ED077
:101150000021C184016851E8031F026821F0C00129
:1011600042E80313002BF5D1202180F841100168DB
:10117000496990F84220222A2BD111F0400128D051
:101180000021C185016851E8031F026821F49071B4
:1011900042E80313002BF5D1016851E8051F0268EE
:1011A00021F0010142E80513002BF5D1016B012963
:1011B0000AD100BF016851E8031F026821F0100145
:1011C00042E80313002BF5D1202180F842100021C2
:1011D0000163416C41F010014164FFF7C5BE00009E
:1011E0000168806B0968C90530D40021C18500BF42
:1011F000016851E8031F026821F4807142E803137B
:10120000002BF5D1016851E8051F026821F00101AA
:1012100042E80513002BF5D1016851E8051F02686B
:1012200021F0400142E80513002BF5D1202180F880
:101230004210016B012909D1016851E8031F0268BE
:1012400021F0100142E80313002BF5D10021416386
:10125000016B012918BFFFF7CDBE818DFFF782BE5C
:10126000806B01214163016B012918BFFFF7D2BEDA
:10127000818D4908FFF776BEB0B50446006804F1D9
:1012800008030ECB0569194325F440552A43026132
:101290006269E3691143C268194349F20C639A43D6
:1012A0001143C1604169A26921F4407141F20043D8
:1012B000114340F48062C4F201039A42416102D1B9
:1012C000FFF742FC01E0FFF72BFCE1694FF69C754C
:1012D00063681922C0F6FF75B1F5004FA0FB02014B
:1012E0001CD15A00DB0FFEF7DBFF48F21F51C5F29D
:1012F000EB11A0FB01235A0905F1805302FB030007
:10130000322303EBC000A0FB01014FF4F87000EAA8
:10131000111000EB0210C1F3421118E09A009B0F6C
:10132000FEF7BEFF48F21F51C5F2EB11A0FB0123EF
:101330005A0902FB0500322303EB0010A0FB010158
:10134000F02000EA511000EB0210C1F343110844F1
:1013500021688860B0BD0000F0B581B01346002759
:101360000446816283854764222084F84200E06B52
:1013700041F2E11541F261260A462168C0F60005F6
:10138000C0F60006C0E90F5641F23D16C0F6000651
:101390000431C0E91367FFF75DF938B110206064CC
:1013A000202084F84200012001B0F0BD00972068A1
:1013B00001680091406800900098206950B100BF1A
:1013C000206850E8030F216840F4807041E8030270
:1013D000002AF5D1206850E8050F216840F001008F
:1013E00041E80502002AF5D1206850E8050F216880
:1013F00040F0400041E80502002AF5D1002001B08C
:10140000F0BD0000FEE7000092B043F6300747F25F
:101410000008C4F20207C4F20008FFF74FFA0024E4
:1014200001943869022540F080503861386900F035
:101430008050019001980194D8F8000065F38F3036
:10144000C8F80000D8F8000000F44040019001986E
:10145000012001904FF4803002904FF480000890FA
:10146000082009904FF4A8700A9004200B900720E0
:101470000C9001A80795FFF7B1FB002818BFFFF7F4
:10148000DFF80F20CDE90D054FF48050CDE91004B1
:101490000DA802210F94FFF793FA002818BFFFF759
:1014A000CFF841F21110C0F60000FFF7C1F8002696
:1014B0000196386808F5C83440F001003860386893
:1014C00001AD00F0010001900198032001904FF060
:1014D00001094FF0020A2046294605960396CDF8E9
:1014E0000890CDF810A0FFF705F9042001A981E8C4
:1014F000010620462946FFF7FDF820460421002278
:10150000FFF7C2F90196386808F5204140F4001051
:101510003860386847F2B01200F40010019001986A
:10152000019638680C2340F4800038603868C0F2B7
:101530000B0200F480000190019840F27C00C2F29E
:10154000000080E84600C0E90366C0E90536C661D0
:10155000FFF70CFD002818BFFFF772F840F27C047B
:10156000C2F200042046FEF755FF40F2C40540F2E7
:101570000417C2F20005C2F2000700BF2046294648
:101580004022FFF725FD38780028FDD0284640216D
:10159000FEF75EFF3E70F1E7F1EE100A4FF6FF71C5
:1015A000C0F2C03120EA010040F04070E1EE100AC4
:1015B000704700000000000000000102030406075D
:1015C000080900000000010203040000F0150008F3
:1015D0000000002010000000F801000800160008BC
:1015E0001000002040070000180200080000000062
:1015F0000024F400010000001000000000000000C2
:040000050800019559
:00000001FF
