:020000040800F2
:100000008006002061020008710C0008690C0008DD
:100010006D0C00080D040008950C0008000000009D
:10002000000000000000000000000000790C000843
:100030001104000800000000750C00087D0C000889
:100040007B0200087B0200087B0200087B0200089C
:100050007B0200087B020008150400087B020008F0
:100060007B0200087B0200087B0200087B0200087C
:100070007B0200087B0200087B0200087B0200086C
:100080007B0200087B0200087B02000800000000E1
:100090000000000000000000000000007B020008DB
:1000A0007B0200087B0200087B0200087B0200083C
:1000B0007B0200087B0200087B0200087B0200082C
:1000C0007B0200087B0200087B0200087B0200081C
:1000D0007B0200087B0200087B0200080000000091
:1000E0007B0200087B0200087B0200080000000081
:1000F0000000000000000000000000007B0200087B
:10010000000000007B0200087B0200087B02000860
:1001100000000000000000000000000000000000DF
:100120007B0200087B0200087B0200087B020008BB
:100130007B0200080000000000000000000000003A
:100140000000000000000000000000007B0200082A
:100150007B0200087B0200087B0200087B0200088B
:100160007B0200087B020008000000000000000085
:10017000000000000000000000000000000000007F
:10018000000000007B0200080000000000000000EA
:100190007B02000800F002F800F052F814A696E87E
:1001A000000CB244B344DA4501D100F049F8BAE892
:1001B0000F000FA696E83000A5EB040504EB060738
:1001C000AAEB0704A7F101074FEA15154FEA34140B
:1001D000A4F10104AC4201D300F032F813F0010F96
:1001E00018BFFB1A43F0010300F001F8DBE71847E2
:1001F0006C0C00008C0C0000103A24BF78C878C149
:10020000FAD8520724BF30C830C144BF04680C601C
:1002100070470000704700000023002400250026DE
:10022000103A28BF78C1FBD8520728BF30C148BF59
:100230000B6070471FB500F0FCFD1FBD10B510BD71
:1002400000F0A9F81146FFF7F5FF00F093FD00F06C
:10025000C7F803B4FFF7F2FF03BC00F0CFF80000CB
:100260000948804709480047FEE7FEE7FEE7FEE74A
:10027000FEE7FEE7FEE7FEE7FEE7FEE70448054986
:10028000054A064B70470000810C000895010008E4
:1002900080000020800600208002002080020020D4
:1002A00053EA020C00F069802DE9F04B4FF0000694
:1002B000002B1FBFB3FA83F503FA05F424FA05F601
:1002C0005E4012BF1643B2FA82F502FA05F4C5F198
:1002D00020051EBF22FA05FC44EA0C04203556EA2C
:1002E000044C4FEA144418BF641C4FF000084FF050
:1002F0000009904271EB030C39D3002919BFB1FA00
:1003000081F701FA07F6B0FA80F700FA07F6C7F1AD
:1003100020071EBF20FA07FC46EA0C062037B6FB72
:10032000F4FCA7EB0507103F07F01F0BCBF12006ED
:100330002CFA06F60CFA0BFB44BFB3460026202F1E
:10034000A4BF5E464FF0000B5BEA060C08BF4FF0FF
:10035000010B19EB0B0948EB0608ABFB027C06FB13
:1003600002CC0BFB03CCC01B71EB0C01C1E70B46AD
:10037000024641464846BDE8F08B13B5084318BF16
:100380004FF0FF300146AFF30080BDE81C407047DE
:10039000704770477047754600F02CF8AE46050070
:1003A0006946534620F00700854618B020B5FFF790
:1003B00065FFBDE820404FF000064FF000074FF00A
:1003C00000084FF0000BAC46ACE8C009ACE8C0092F
:1003D000ACE8C009ACE8C00921F007018D467047C0
:1003E00010B50446AFF300802046BDE81040FFF78B
:1003F00030BF00000048704710000020014918205D
:10040000ABBEFEE72600020070470000FEE70000DA
:10041000704700007047000040F27000C2F2000018
:10042000006808B1004700BFFEE700002DE9F04F6B
:1004300083B000F1200200F13E4741F20005009236
:1004400007F1FF77C4F2020507224FEAB726A84258
:1004500008BF0422042E38BF4FEAB72200274FF00E
:10046000000A4FF0000801920AE000BF08F10108FD
:100470000AF1020AB8F1100F07F1040700F09D809D
:100480000D68012202FA08FC15EA0C09EED04D684D
:10049000032205F0030BABF10106012E02FA0AFE5E
:1004A00010D88668CC6826EA0E0604FA0AF43443AB
:1004B00084604468C5F3001524EA0C0605FA08F5C3
:1004C0002E434660BBF1030F1BD0C6688D6826EA39
:1004D0000E0605FA0AF52E43BBF1020FC66010D1D5
:1004E0006FF00302009D02EA580655F806C007F0B7
:1004F0001C040F220B69A2402CEA0202A3401A43FB
:10050000AA5102684B6822EA0E0203F0030606FABB
:100510000AF6324313F4403F0260A7D0002243F6AC
:1005200044030292C4F202031A6843F6004442F400
:1005300080421A601A68C4F2010402F480420292F6
:10054000029A28F003024FF6084C2244CFF6FF7CB3
:1005500052F80C3007F00C060F25B540AB43019D57
:1005600005FA06F6334342F80C30A2684B6842EABB
:10057000090643F60C4CDD0258BF22EA0906A660C4
:10058000C4F2010CDCF800209D0242EA090658BFC3
:1005900022EA0906CCF8006062689D0342EA090677
:1005A00058BF22EA090666602268DB0342EA0906B0
:1005B00058BF22EA0906266058E703B0BDE8F08F6D
:1005C0000069084018BF012070470000426902EA34
:1005D0000103914341EA034181617047002A08BF4A
:1005E000090481617047000040F27800C2F2000007
:1005F0000068704740F2040040F27801C2F2000047
:10060000C2F2000100780A681044086070470000D8
:1006100080B543F60040C4F20200016841F4007165
:100620000160016841F480610160016841F48071FA
:100630000160032000F05EF80F2000F005F800F0E4
:100640002BF8002080BD0000B0B540F20402C2F2D9
:10065000000240F200011278C2F200014FF47A73F6
:100660000968B3FBF2F20446B1FBF2F1084600F070
:10067000E5FA0F2C4FF001050CD858B94FF0FF30B8
:1006800021460022002500F009F840F20800C2F2DD
:10069000000004602846B0BD7047000010B54EF65B
:1006A0000C5CCEF2000CDCF80030C3F3022E8EF0AE
:1006B0000704042C28BF0424BEF103034FF0FF3EBF
:1006C0000EFA04F438BF0023A14399400EFA03F355
:1006D0009A43114300F1604200F00F03090102F553
:1006E0006442043B6344002848BF03F10C021170CC
:1006F00010BD00004EF60C51CEF200010A684FF614
:10070000FF031A4060F30A2242F0806040F0FD705F
:1007100008607047002804BF012070472DE9F041B0
:1007200043F60808C4F202080446D8F8F8030D4658
:1007300000F00700814207D988F8F853D8F8F80389
:1007400000F00700A84276D12068810717D541073D
:1007500005D5D8F8001041F4E051C8F800100107A1
:1007600005D5D8F8001041F46041C8F80010D8F859
:100770000010A26821F0F0011143C8F80010C00772
:100780003FD1D8F8F80300F00700854207D288F877
:10079000F853D8F8F80300F00700A8424BD12068BE
:1007A000410707D5D8F80010E26821F4E051114361
:1007B000C8F80010000708D5D8F80000216920F417
:1007C000604040EAC100C8F8000000F053F8D8F8D3
:1007D000001040F64C62C1F30311C0F60002515CF8
:1007E00040F2000220FA01F140F20800C2F20000DB
:1007F0000068C2F200021160FFF726FF0020BDE88A
:10080000F0816068811E022907D258F8081C89010E
:100810005CBF0120BDE8F08110E0012807D158F845
:10082000081C89035CBF0120BDE8F08106E058F890
:10083000081C890702D40120BDE8F081D8F8001017
:1008400021F003010843C8F80000FFF7CDFE06467B
:1008500041F28837D8F80000616800F00C00B0EB76
:10086000810F8ED0FFF7C0FE801BB842F2D9032063
:10087000BDE8F08110B543F60404C4F202046168D7
:10088000C1F3810142F20040C0F2F400DFE801F060
:100890000203080210BD41F20020C0F27A0010BD30
:1008A000216801F03F02216823684902C3F38811DF
:1008B00005D4A1FB00010023FFF7F2FC06E041F2A2
:1008C0000020C0F27A004843B0FBF2F02168022217
:1008D000C1F3014102EB4101B0FBF1F010BD00009A
:1008E000002804BF012070472DE9F04182B0044682
:1008F000007843F60006C007C4F2020649D0B0688B
:1009000000F00C00042809D13068800341D56068EC
:1009100000283ED1012002B0BDE8F081B06800F0AF
:100920000C00082802D170684002EDD46568306878
:10093000B5F5A02F05D0B5F5803F09D140F4803042
:100940000CE040F480203060306840F4803005E0F6
:1009500020F480303060306820F480203060FFF771
:1009600043FE002D054611D03068800311D4FFF7F7
:100970003BFE401B6428F7D928E100BFFFF734FE97
:10098000401B64284FF0030000F2E08030688003D1
:10099000F4D4207880071BD5B06810F00C0F09D074
:1009A000B06800F00C00082840F0858070684002B4
:1009B00000F181803068800703D5E068012840F0AD
:1009C0009A803068216920F0F80040EAC100306068
:1009D0002078000734D42078400746D4A5695DB359
:1009E000B06800F00C00082840F09C80012D00F059
:1009F00082807068E16900F480028A427BD1216ABA
:100A000000F03F028A4276D147F6C071626A014027
:100A1000B1EB821F6FD1A16A4FF6FF73C9039943EF
:100A200000F44032A1F580318A4264D1E16A00F0DD
:100A30007060B0EB016F5ED1002002B0BDE8F081C4
:100A4000606900285BD00020C4F247200121C0F873
:100A5000801EFFF7C9FD0546706F8007BBD4FFF706
:100A6000C3FD401B0228F7D9B0E0306C5FEAC00834
:100A70000AD400200190306C40F080503064306C1B
:100A800000F080500190019847F20007C4F200077F
:100A90003868C00526D4386840F480703860FFF7A5
:100AA000A3FD05463868C0051CD4FFF79DFD401B1B
:100AB0000228F7D98AE0E068002840F20000C4F27A
:100AC000472053D001210160FFF78EFD054600BF8E
:100AD000306880073FF575AFFFF786FD401B0228A1
:100AE000F6D973E0A568306F052D51D0012D56D190
:100AF00040F0010059E0012002B0BDE8F081002083
:100B0000C4F247200021C0F8801EFFF76DFD0546A6
:100B1000706F80077FF55FAFFFF766FD401B02280F
:100B2000F6D953E00027C4F2472700203866FFF7C4
:100B30005BFD022D05460DD1306880015DD5FFF7C4
:100B400053FD401B02284FF00300F5D902B0BDE869
:100B5000F08100BF306880017FF56EAFFFF744FD84
:100B6000401B02284FF00300F4D9EFE70021016099
:100B7000FFF73AFD054600BF306880077FF528AFD4
:100B8000FFF732FD401B02284FF00300F4D9DDE7E8
:100B900040F004003067306F40F0010005E020F0C5
:100BA00001003067306F20F004003067FFF71CFD54
:100BB000002D054641F2883713D000BF306F800703
:100BC00012D4FFF711FD401BB842F7D9032002B041
:100BD000BDE8F081FFF708FD401BB8424FF003006D
:100BE000B4D8306F8007F5D4B8F1000F3FF5F6AEFA
:100BF000306C20F080503064F0E604F11C052FCDFD
:100C0000084340EA8210D9034FF6FF729143A1F5E1
:100C1000803140EA05600843706001203866FFF7C4
:100C2000E3FC0446306880013FF506AFFFF7DCFCCB
:100C3000001B02284FF00300F4D987E7411E002073
:100C4000B0EB116F1CBF012070474EF21002CEF2C4
:100C5000000251604EF62351CEF20001F0230B70DA
:100C60000721906011607047FEE70000FEE700007A
:100C7000704700007047000070470000FFF7BABCE3
:100C80004EF68850CEF20000016841F47001016018
:100C900070470000FEE7000040F27401C2F200015C
:100CA0000860704780B54EF2180140F27402CEF22F
:100CB0000001C2F2000251F804CC12680023504334
:100CC0004FF47A7200FB02FE086800BF0A68824295
:100CD000FCD003449B1A824228BF634473451046EC
:100CE00028BF80BDF2E7000010B586B00020059057
:100CF000CDE90300CDE90100009043F63000C4F2D5
:100D00000200016840F2004441F0100101600068F7
:100D1000C4F2020400F0100000900098042001903A
:100D20000120039004F5406001A9FFF77FFB2046F6
:100D300020210122FFF752FC06B010BD10B541F290
:100D40000004C4F2020420460421FFF739FC60B914
:100D50000A20FFF7A7FF20460421FFF731FC20B946
:100D600020460421FFF72CFC08B1002010BD012013
:100D700010BD000070B592B047F20004C4F2000448
:100D8000FFF746FC002543F640000195C4F202003F
:100D90000168022641F080510160006800F0805037
:100DA000019001980195206866F38F3020602068DB
:100DB00000F4404001900198012001904FF48030F0
:100DC00002904FF480000890082009904FF4A8701A
:100DD0000A9004200B9007200C9001A80796FFF7BB
:100DE0007FFD002818BFFFF717FB0F20CDE90D0688
:100DF0004FF48050CDE910050DA802210F95FFF7A3
:100E000089FC002818BFFFF707FB5420FFF744FFB9
:100E1000FFF76AFFFFF792FF28B104F5CA302021DF
:100E2000FFF7D4FB02E00A20FFF73CFF002012B0DE
:100E300070BDF1EE100A4FF6FF71C0F2C03120EA2A
:100E4000010040F04070E1EE100A70470000000021
:100E5000000000000102030406070809800E0008D4
:100E60000000002010000000F8010008900E0008AB
:100E700010000020700600001802000800000000AA
:100E80000024F40001000000100000000000000039
:040000050800019559
:00000001FF
